S01700004763634170706C69636174696F6E312E737265635B
S11300000C949B000C94B8000C94B8000C94B800A9
S11300100C94B8000C94B8000C94B8000C94B8007C
S11300200C94B8000C94B8000C94B8000C94B8006C
S11300300C94B8000C94B8000C94B8000C94B8005C
S11300400C94B8000C94B8000C94B3020C94B8004F
S11300500C94B8000C9492030C94B8000C94B8005F
S11300600C94B8000C94B8000C94B8000C94B8002C
S11300700C94B8000C94B8000C94B8000C94B8001C
S11300800C94B8000C94B8000C94B8000C94390487
S11300900C94B8000C94B8000C94B8000C94B800FC
S11300A00C94B8000C94B8000C94B8000C94B800EC
S11300B00C94B80007634236B79BD8A71A39685620
S11300C018AEBAAB558C1D3CB7CC5763BD6DEDFD76
S11300D0753EF6177231BF000000803F0800000033
S11300E0BE922449123EABAAAA2ABECDCCCC4C3E29
S11300F000000080BEABAAAAAA3E00000000BF0018
S11301000000803F0000000000084178D3BB438713
S1130110D1133D190E3CC3BD4282AD2B3E68EC8227
S113012076BED98FE1A93E4C80EFFFBE01C4FF7FAC
S11301303F000000000011241FBECFEFD8E0DEBF57
S1130140CDBF11E0A0E0B1E0E8E6F3E102C0059024
S11301500D92A230B107D9F721E0A2E0B1E001C0CD
S11301601D92A535B207E1F70E9489040C94B209E7
S11301700C940000CF93DF9300D0CDB7DEB79A8301
S1130180898389819A81FC01108289819A81FC0189
S1130190118200000F900F90DF91CF910895CF93BB
S11301A0DF9300D01F92CDB7DEB79A8389836B8328
S11301B089819A81FC01218131E0320F89819A8100
S11301C0FC013183822F90E029813A81820F931FB1
S11301D002962B81FC01208389819A81FC01818113
S11301E0803221F489819A81FC01118200000F90F0
S11301F00F900F90DF91CF910895CF93DF9300D0AC
S11302001F92CDB7DEB79B838A838A819B81FC01D1
S1130210208131E0320F8A819B81FC013083822F5F
S113022090E02A813B81820F931F0296FC0180811A
S113023089838A819B81FC018081803221F48A81B7
S11302409B81FC01108289810F900F900F90DF91A8
S1130250CF910895CF93DF93CDB7DEB781EC90E0D3
S113026021EC30E0F90120812869FC01208382EC33
S113027090E022EC30E0F90120812660FC0120832B
S113028085EC90E0FC01108284EC90E026E6FC0111
S1130290208378940000DF91CF910895CF93DF936A
S11302A0CDB7DEB786EC90E0FC018081DF91CF9181
S11302B00895CF93DF9300D01F92CDB7DEB79B8311
S11302C08A838A819B81FC01808189838A819B81C5
S11302D00E94FD00813741F480910201882321F4BA
S11302E081E08093020105C08A819B812981FC0100
S11302F0208300000F900F900F90DF91CF9108950D
S11303008F929F92AF92BF92CF92DF92EF92FF9221
S1130310CF93DF9300D000D0CDB7DEB79B838A8321
S11303206C83198260C08091330190913401CC01B7
S1130330A0E0B0E0BC01CD010E940F076B017C017D
S11303408981882F90E02A813B81820F931FFC01D1
S11303508081882F90E0092E000CAA0BBB0BBC01F6
S1130360CD010E9411074B015C018C81882F90E024
S11303709C01215031098981882F90E0A901481BF3
S1130380590BCA01092E000CAA0BBB0BBC01CD01F1
S11303900E941107DC01CB019C01AD0160E070E01B
S11303A080E291E40E940A08DC01CB019C01AD01CA
S11303B0C501B4010E949D07DC01CB019C01AD0184
S11303C0C701B6010E940206DC01CB01BC01CD01CC
S11303D00E94E006DC01CB01909334018093330149
S11303E089818F5F898399818C81981708F49BCFC9
S11303F000000F900F900F900F90DF91CF91FF901E
S1130400EF90DF90CF90BF90AF909F908F90089522
S11304108F929F92AF92BF92CF92DF92EF92FF9210
S1130420CF93DF93CDB7DEB72A970FB6F894DEBF2C
S11304300FBECDBF9E838D836F83598748872A87DC
S113044019821A821B820FC08B81882F90E02D8124
S11304503E81820F931FFC0180819981890F8983DA
S11304608B818F5F8B839B818F81981768F31C82AC
S11304705DC08A81882F90E0092E000CAA0BBB0B6B
S1130480BC01CD010E9411076B017C018C81882F76
S113049090E028853985820F931FFC018081882F85
S11304A090E0092E000CAA0BBB0BBC01CD010E94ED
S11304B011074B015C018A85882F90E09C01215033
S11304C031098C81882F90E0A901481B590BCA017E
S11304D0092E000CAA0BBB0BBC01CD010E94110715
S11304E0DC01CB019C01AD0160E070E080E291E4AD
S11304F00E940A08DC01CB019C01AD01C501B401D5
S11305000E949D07DC01CB019C01AD01C701B6012E
S11305100E940206DC01CB01BC01CD010E94E00671
S1130520DC01CB018A838C818F5F8C839C818A85DB
S1130530981708F49ECF99818A81981711F481E065
S113054001C080E02A960FB6F894DEBF0FBECDBF7F
S1130550DF91CF91FF90EF90DF90CF90BF90AF905D
S11305609F908F9008951F920F9200905F000F92BA
S113057011242F933F934F935F936F937F938F93A4
S11305809F93AF93BF93EF93FF93CF93DF93CDB735
S1130590DEB70E944E018093100180911001682FF4
S11305A081E191E00E94CF0080910201882329F02B
S11305B0809104018F5F809304010000DF91CF914B
S11305C0FF91EF91BF91AF919F918F917F916F9127
S11305D05F914F913F912F910F9000925F000F9088
S11305E01F901895CF93DF93CDB7DEB784E290E0E8
S11305F024E230E0F90120812460FC01208385E2BB
S113060090E025E230E0F90120812B7FFC0120837A
S113061080E890E020E830E0F90120812062FC01CC
S1130620208380E890E020E830E0F9012081236015
S1130630FC01208381E890E021E830E0F901208189
S11306402860FC01208381E890E021E830E0F90192
S113065020812260FC0120838AE890E024E630E0D7
S1130660FC01318320830000DF91CF910895CF9363
S1130670DF9300D0CDB7DEB79A8389838AE890E010
S113068029813A81FC013183208300000F900F906F
S1130690DF91CF910895CF93DF93CDB7DEB78AE78B
S11306A090E02AE730E0F90120812068FC012083F2
S11306B08AE790E02AE730E0F90120812062FC011A
S11306C020838AE790E02AE730E0F901208128605E
S11306D0FC0120838AE790E02AE730E0F9012081D9
S11306E02660FC0120838CE790E02CE730E0F901E0
S11306F02081206CFC0120838CE790E02CE730E023
S1130700F90120812260FC0120838AE790E02AE736
S113071030E0F90120812064FC0120830000DF9196
S1130720CF9108951F920F9200905F000F921124B1
S11307302F933F934F935F936F937F938F939F93E5
S1130740AF93BF93EF93FF93CF93DF93CDB7DEB710
S113075088E790E0FC0180819181CC01A0E0B0E0C9
S1130760BC01CD010E940F07DC01CB012DEC3CEC58
S11307704CE85FE3BC01CD010E949D07DC01CB0185
S113078020E030E040E854E4BC01CD010E946E0654
S1130790DC01CB0120E030E04AE754E4BC01CD01A8
S11307A00E949D07DC01CB01BC01CD010E94E00643
S11307B0DC01CB0190930D0180930C010000DF91CB
S11307C0CF91FF91EF91BF91AF919F918F917F91C5
S11307D06F915F914F913F912F910F9000925F0025
S11307E00F901F901895CF93DF93CDB7DEB784E2B7
S11307F090E024E230E0F90120812061FC012083B3
S113080085E290E025E230E0F90120812F7EFC01B1
S113081020830000DF91CF910895CF93DF93CDB76C
S1130820DEB784E290E024E230E0F9012081206226
S1130830FC01208385E290E025E230E0F90120818B
S11308402F7DFC01208381E990E021E930E0F9016A
S113085020812360FC01208381E790E021E730E0E0
S1130860F90120812160FC0120830000DF91CF91F8
S113087008951F920F9200905F000F9211242F93FE
S11308803F938F939F93EF93FF93CF93DF93CDB7D2
S1130890DEB780910001813059F485E290E025E2D1
S11308A030E0F901308120E22327FC01208315C0C8
S11308B080910B018F5F80930B0180910B01853038
S11308C061F485E290E025E230E0F901308120E234
S11308D02327FC01208310920B010000DF91CF91AC
S11308E0FF91EF919F918F913F912F910F900092E3
S11308F05F000F901F901895CF93DF9300D0CDB772
S1130900DEB71A82198289819A8101969A83898332
S1130910FACF0F931F93CF93DF9300D0CDB7DEB7F9
S11309200E942A010E94F2020E944B030E94F303D8
S11309300E940D0481E191E00E94BA0019821A829A
S113094081E191E00E94590180910201813009F016
S1130950ECC080910401882359F08091030188231D
S113096039F481E191E00E94FD00805380930301FA
S113097090910401809103018917B0F480910301DF
S11309809981981788F48981082F10E081E191E01A
S11309900E94FD0020ED280FC8018B5C9E4FFC01D6
S11309A0208389818F5F898380910401282F30E01F
S11309B080910301882F90E0029682179307CCF46C
S11309C08A818230B0F4809103019981981789F467
S11309D08A81082F10E081E191E00E94FD0020ED62
S11309E0280FC801825F9E4FFC0120838A818F5F9C
S11309F08A83809103019981981709F096C08A81AE
S1130A00823009F092C08091030122E04EE051E06F
S1130A10682F85E391E00E940802882309F463C0EB
S1130A2080910301682F85E391E00E948001809109
S1130A3033019091340124EE3CE0B9010E948F0906
S1130A40CB01982F8827990F990F909306018093D3
S1130A50050180913301909134019695879596957F
S1130A6087959C01ABE7B4E10E94A3099C013695EC
S1130A702795C901880F991F880F991F280F391FBF
S1130A808091330190913401820F931F9093080158
S1130A9080930701409133015091340180913301D7
S1130AA09091340196958795969587959C01ABE72F
S1130AB0B4E10E94A3099C0136952795C901880FCA
S1130AC0991F880F991F820F931F9A01281B390BB6
S1130AD0C90190930A0180930901809105019091C5
S1130AE006010E9437031092020110920401109231
S1130AF0030119821A82109234011092330185E2A3
S1130B0090E025E230E0F901308120E12327FC0167
S1130B1020830E947C0485E290E025E230E0F90124
S1130B20308120E12327FC01208380910C019091E6
S1130B300D01892BF9F020910C0130910D01809168
S1130B4007019091080182179307A0F481E0809334
S1130B50000110920B0180910501909106010A9702
S1130B6090930601809305018091050190910601FF
S1130B700E94370380910C0190910D01892BF9F0AB
S1130B8020910C0130910D018091090190910A018D
S1130B9028173907A0F481E08093000110920B011B
S1130BA080910501909106010A9690930601809325
S1130BB0050180910501909106010E9437038091FF
S1130BC00C0190910D01892B09F4BACE20910C01EE
S1130BD030910D018091090190910A0182179307C8
S1130BE008F0AECE20910C0130910D0180910701E7
S1130BF0909108012817390708F0A2CE109200013D
S1130C009FCE5058BB27AA270E9419060C9463074D
S1130C100E94550738F00E945C0720F039F49F3F8A
S1130C2019F426F40C9452070EF4E095E7FB0C94A7
S1130C304C07E92F0E94740758F3BA176207730729
S1130C408407950720F079F4A6F50C9496070EF422
S1130C50E0950B2EBA2FA02D0B01B90190010C01C8
S1130C60CA01A0011124FF27591B99F0593F50F4E0
S1130C70503E68F11A16F040A22F232F342F442738
S1130C80585FF3CF469537952795A795F040539530
S1130C90C9F77EF41F16BA0B620B730B840BBAF000
S1130CA09150A1F0FF0FBB1F661F771F881FC2F76B
S1130CB00EC0BA0F621F731F841F48F4879577957F
S1130CC06795B795F7959E3F08F0B0CF9395880F39
S1130CD008F09927EE0F9795879508950E9482064C
S1130CE00C9463070E945C0758F00E94550740F07B
S1130CF029F45F3F29F00C944C0751110C94970789
S1130D000C9452070E94740768F39923B1F3552396
S1130D1091F3951B550BBB27AA276217730784070A
S1130D2038F09F5F5F4F220F331F441FAA1FA9F3A0
S1130D3035D00E2E3AF0E0E832D091505040E6958E
S1130D40001CCAF72BD0FE2F29D0660F771F881FEF
S1130D50BB1F261737074807AB07B0E809F0BB0BE2
S1130D60802DBF01FF2793585F4F3AF09E3F5105F6
S1130D7078F00C944C070C9497075F3FE4F3983E8B
S1130D80D4F3869577956795B795F7959F5FC9F7DF
S1130D90880F911D9695879597F90895E1E0660F60
S1130DA0771F881FBB1F621773078407BA0720F0D9
S1130DB0621B730B840BBA0BEE1F88F7E095089542
S1130DC00E947C0788F09F5798F0B92F9927B75154
S1130DD0B0F0E1F0660F771F881F991F1AF0BA95DB
S1130DE0C9F714C0B13091F00E949607B1E008959C
S1130DF00C949607672F782F8827B85F39F0B93F8E
S1130E00CCF3869577956795B395D9F73EF490958D
S1130E108095709561957F4F8F4F9F4F0895E8940B
S1130E2009C097FB3EF490958095709561957F4F2E
S1130E308F4F9F4F9923A9F0F92F96E9BB279395DC
S1130E40F695879577956795B795F111F8CFFAF4EC
S1130E50BB0F11F460FF1BC06F5F7F4F8F4F9F4F1D
S1130E6016C0882311F096E911C0772321F09EE87B
S1130E70872F762F05C0662371F096E8862F70E0E1
S1130E8060E02AF09A95660F771F881FDAF7880FBB
S1130E909695879597F9089597F99F6780E870E08C
S1130EA060E008959FEF80EC089500240A941616DC
S1130EB0170618060906089500240A941216130644
S1130EC0140605060895092E0394000C11F48823D2
S1130ED052F0BB0F40F4BF2B11F460FF04C06F5FEE
S1130EE07F4F8F4F9F4F089557FD9058440F551FC4
S1130EF059F05F3F71F04795880F97FB991F61F098
S1130F009F3F79F087950895121613061406551F0E
S1130F10F2CF4695F1DF08C0161617061806991F7A
S1130F20F1CF86957105610508940895E894BB276F
S1130F3066277727CB0197F908950E94B0070C9490
S1130F4063070E94550738F00E945C0720F0952340
S1130F5011F00C944C070C94520711240C9497072D
S1130F600E94740770F3959FC1F3950F50E0551FCD
S1130F70629FF001729FBB27F00DB11D639FAA27EA
S1130F80F00DB11DAA1F649F6627B00DA11D661F39
S1130F90829F2227B00DA11D621F739FB00DA11D5A
S1130FA0621F839FA00D611D221F749F3327A00D14
S1130FB0611D231F849F600D211D822F762F6A2FB0
S1130FC011249F5750409AF0F1F088234AF0EE0F15
S1130FD0FF1FBB1F661F771F881F91505040A9F742
S1130FE09E3F510580F00C944C070C9497075F3F8B
S1130FF0E4F3983ED4F3869577956795B795F7957E
S1131000E7959F5FC1F7FE2B880F911D96958795F5
S113101097F90895FA01EE0FFF1F30962105310567
S1131020A1F16115710561F48038BFE39B0749F1B3
S113103068949038810561F08038BFEF9B0741F0D8
S113104099234AF5FF3FE1053105210519F1E8949B
S11310500894E795D901AA2329F4AB2FBE2FF85F92
S1131060D0F310C0FF5F70F4A695E0F7F73950F0A5
S113107019F0FF3A38F49F779F930DD00F9007FC37
S11310809058089546F00C94520760E070E080E8B0
S11310909FE308954FE79F775F934F933F932F9379
S11310A00E9405092F913F914F915F910E949D07E6
S11310B00C94620829F416F00C944C070C949607CF
S11310C00C9452070E947C07A8F39638A0F707F8FF
S11310D00F92E8942BE33AEA48EB5FE70E94B307E8
S11310E00F920F920F924DB75EB70F920E944D0967
S11310F0E4EBF0E00E9494084F915F91EF91FF912F
S1131100E595EE1FFF1F49F0FE57E0684427EE0FF8
S1131110441FFA95E1F74195550B0E94C7080F90BB
S113112007FE0C94BB080895DF93CF931F930F938E
S1131130FF92EF92DF927B018C01689406C0DA2E55
S1131140EF010E94B007FE01E894A5912591359125
S113115045915591A6F3EF010E941906FE019701EE
S1131160A801DA9469F7DF90EF90FF900F911F9137
S1131170CF91DF9108959B01AC0160E070E080E8BD
S11311809FE30C946E060C944C070C9481090E9406
S11311907C07D8F39923C9F3940F511DA3F39150FD
S11311A0504094F059F0882332F0660F771F881F5F
S11311B091505040C1F79E3F51052CF7880F911D67
S11311C09695879597F908955F3FACF0983E9CF00B
S11311D0BB27869577956795B79508F4B160939585
S11311E0C1F7BB0F58F711F460FFE8CF6F5F7F4F73
S11311F08F4F9F4FE3CF0C94970716F00C948109FF
S11312000C94520768940C944C070E947C07A8F332
S11312109923C1F3AEF3DF93CF931F930F93FF9200
S1131220C92FDD2788232AF02197660F771F881F8F
S1131230DAF720E030E040E85FEB9FE3883920F004
S1131240803E38F021968F770E940206ECEDF0E0A4
S113125004C00E940206E9E0F1E00E9494088B01B8
S1131260BE01EC01FB2E6F5771097595771F880B32
S1131270990B0E94110728E132E741E35FE30E94E2
S1131280B007AF2D9801AE01FF900F911F91CF9140
S1131290DF910E9419060C946307FA01DC01AA0F7E
S11312A0BB1F9B01AC01BF5728F4222733274427D7
S11312B0507820C0B75190F4AB2F00244695379551
S11312C02795011CA395D2F3002071F0220F331F40
S11312D0441FB395DAF30ED00C9401066130710506
S11312E0A0E88A07B94630F49B01AC01662777274A
S11312F088279078309621F020833183428353836A
S113130008959F3F31F0915020F487957795679524
S1131310B795880F911D9695879597F90895AA1BFF
S1131320BB1B51E107C0AA1FBB1FA617B70710F0CC
S1131330A61BB70B881F991F5A95A9F780959095FE
S1131340BC01CD010895A29FB001B39FC001A39F2A
S1131350700D811D1124911DB29F700D811D1124EA
S10B1360911D0895F894FFCFDC
S105136801007E
S9030000FC
